:020000040800F2
:1000000048080020050100083D0D0008E50B000828
:10001000390D0008B10200082D150008000000008D
:10002000000000000000000000000000A10F000818
:10003000CD04000800000000C50D0008B510000840
:100040001F0100081F0100081F0100081F01000810
:100050001F0100081F0100081F0100081F01000800
:100060001F0100081F0100081F0100081F010008F0
:100070001F0100081F0100081F0100081F010008E0
:100080001F0100081F0100081F0100081F010008D0
:100090001F0100081F0100081F010008D10400080B
:1000A0001F0100081F0100081F0100081F010008B0
:1000B0001F0100081F0100081F0100081F010008A0
:1000C0001F0100081F0100081F0100081F01000890
:1000D0001F0100082D1200081F0100081F01000861
:1000E0001F0100081F0100081F010008DFF810D0E1
:1000F00000F04CF8004800475D190008AFF300809D
:10010000480800200648804706480047FEE7FEE70B
:10011000FEE7FEE7FEE7FEE7FEE7FEE7FEE7FEE7B7
:10012000B9100008ED0000082DE9F05F0546002039
:1001300092469B4688460646814640241BE0284658
:1001400041464746224600F042F853465A46C01AF6
:10015000914110D311461846224600F029F82D1A75
:1001600067EB01084F4622460120002100F020F8ED
:1001700017EB00094E41201EA4F10104DFDC4846C4
:1001800031462A464346BDE8F09F0000064C074D25
:1001900006E0E06840F0010394E807009847103457
:1001A000AC42F6D3FFF7A6FF381A0008581A000829
:1001B000202A04DB203A00FA02F100207047914027
:1001C000C2F1200320FA03F3194390407047202A1C
:1001D00004DB203A21FA02F00021704721FA02F3F1
:1001E000D040C2F1200291400843194670470000F8
:1001F00000B585B00121082000F006FE0121480568
:1002000000F0F2FD03208DF812001C208DF8130081
:100210004020ADF8100004A9154800F04BFC8020E8
:10022000ADF8100004A9124800F044FC11480090F9
:100230000020ADF804004BF6FF70ADF806009820E2
:10024000ADF808004FF48060ADF80A000001ADF889
:100250000C006946084800F0DFFC0121064800F068
:10026000CFFC0121044800F0BFFC05B000BD000038
:10027000000C0140801A06000054004008B501211E
:10028000042000F0C1FD0220ADF8000010208DF820
:10029000030002208DF802006946044800F00AFCC1
:1002A000022002491431086008BD00000008014026
:1002B00000BFFEE710B50121082000F0A5FD00F009
:1002C0001BF802480249086010BD00002C00002005
:1002D0003C00002008B54FF40070ADF80000482045
:1002E0008DF8030003208DF802006946014800F0F4
:1002F000E1FB08BD000C014008B54FF40070ADF8FB
:10030000000010208DF8030003208DF802006946DC
:10031000014800F0CFFB08BD000C014070B500257E
:10032000002427E000BF4FF40071144800F04DFC9A
:100330000028F8D0282001F0D9FA4FF400710F48B6
:1003400000F043FC01280ED100BF4FF400710B48B0
:1003500000F03BFC0128F8D0C4F1070101208840DF
:10036000C0B2054304E0C4F1070101208840854381
:10037000601CC4B2082CD5DB284670BD000C0140BF
:1003800010B5FFF7B9FF4FF400712F4800F026FCBD
:1003900044F6206001F0AAFA4FF400712A4800F0F8
:1003A0001FFC1E2001F0A2FAFFF794FF4FF400712A
:1003B000254800F00AFC002843D1002408E0601C16
:1003C00084B2B4F57A7F00DD10BD0A2001F08EFA08
:1003D0004FF400711C4800F0F8FB0028EFD0002417
:1003E00008E0601C84B2B4F57A7F00DDECE70A20F7
:1003F00001F07CFA4FF40071134800F0E6FB01288D
:10040000EFD0FFF78BFF114909680870FFF786FFEF
:100410000E4909684870FFF781FF0C490968887028
:10042000FFF77CFF09490968C870FFF777FF0749A4
:1004300009680871FFF760FF4FF40071024800F08F
:10044000CFFB00BFC0E70000000C01403C000020D3
:1004500000F0805111B10349086001E00249486091
:1004600070470000040402400000024021B102680D
:1004700042F00102026004E002684FF6FE731A4087
:10048000026070470146486880B2704710B500228C
:10049000026847F6F0739A430C6A8B6823430C6931
:1004A00023434C6923438C692343CC6923434C6A1F
:1004B00023438C6A23431A430260CB6843600B6872
:1004C00083604B68C36010BD416070477047000097
:1004D00010B54FF4807000F027F8C8B14FF4807168
:1004E0000C4800F072FB012807D120200949143183
:1004F000086000020849486106E0202005491031E3
:1005000008600002044908614FF4807000F006F8AA
:1005100010BD0000000C01400010014001490860BE
:100520007047000014040140014600200022074BE0
:100530001B6803EA0102054B14331B680B4013B11F
:100540000AB1012000E000207047000000040140D3
:10055000002123498279002A3AD00A4612680368AA
:100560009A430B461A600A1D126803689A430B1DD2
:100570001A60027911440A6803681A430A60184A2B
:100580000832126803689A43154B08331A601A1D23
:10059000126803689A43124B0C331A604279102A8E
:1005A0000ED11A1F126803681A430D4B08331A60E4
:1005B0001A1D126803681A43094B0C331A600DE0C8
:1005C0000749427911440A6803681A430A6005E042
:1005D000027911440A6803689A430A607047000070
:1005E000000401401FB50121092000F00DFC4FF46B
:1005F0008070ADF80C0028208DF80F0003A9124878
:1006000000F058FA17208DF8080001208DF8090035
:100610008DF80A008DF80B0002A800F091FB08216C
:10062000012000F027FA4FF48070009000208DF830
:10063000040010208DF8050001208DF806006846A2
:10064000FFF786FF1FBD0000000C014010B5FFF74B
:10065000C9FF10BD70B505460C4616464FF48051D3
:10066000104800F0BBFA032000F04CF9C4F3074037
:1006700000F048F9C4F3072000F044F9E0B200F0BC
:1006800041F904E0FF2000F03DF928706D1C301E98
:10069000A6F101018EB2F5D14FF48051014800F06E
:1006A0009FFA70BD000C01402DE9F04707460E4649
:1006B000144606F0FF0ACAF10000C5B22046E11751
:1006C00004EB1161C1F30728E11704EB1161091272
:1006D000A4EB012101F0FF09BAF1000F17D10DE0E1
:1006E0004FF480723146384600F0BCF8A8F10100A2
:1006F00000F0FF0806F5807607F58077B8F1000F67
:10070000EED14A463146384600F0ACF847E0B8F141
:10071000000F16D14D4505DD22463146384600F022
:10072000A1F83CE02A463146384600F09BF82E44BA
:100730002F44A9EB050082B23146384600F092F80A
:100740002DE0601B84B22046E11704EB1161C1F378
:100750000728E11704EB11610912A4EB012101F054
:10076000FF092A463146384600F07CF82E442F44D3
:100770000DE04FF480723146384600F073F8A8F16E
:10078000010000F0FF0806F5807607F58077B8F1E4
:10079000000FEED14A463146384600F063F8BDE816
:1007A000F087000000B587B00121082000F02CFB85
:1007B0000121880300F018FB03208DF81A0018208F
:1007C0008DF81B004FF40050ADF8180006A923481F
:1007D00000F070F94FF48040ADF8180006A91F48EA
:1007E00000F068F94FF40040ADF8180006A91B4866
:1007F00000F060F910208DF81B000002ADF8180021
:1008000006A9164800F056F94FF48051134800F03D
:10081000E7F90020ADF804004FF48270ADF806004F
:100820000020ADF808000220ADF80A000120ADF864
:100830000C004002ADF80E000020ADF81000ADF83D
:1008400012000720ADF8140001A9054800F08AFB4A
:100850000121034800F06CFB07B000BD000C014013
:100860000038004070B505460C46164600F0F0F81A
:100870004FF48051154800F0B1F9022000F042F821
:10088000C4F3074000F03EF8C4F3072000F03AF844
:10089000E0B200F037F8B6F5807F04DD4FF48076E3
:1008A0000BA000F045FE03E0287800F02BF86D1C4B
:1008B000301EA6F101018EB2F6D14FF480510348EB
:1008C00000F08EF900F096F870BD0000000C0140B9
:1008D0003C3C2D464C4153482D4552524F522D3EE3
:1008E0003E205350495F464C4153485F5061676515
:1008F000577269746520746F6F206C61726765212F
:100900000A00000010B504464FF4805019490880D1
:100910000AE0184801880088401E164A108019B95C
:10092000012000F04DF810BD0221134800F00CFB2F
:100930000028EED02146104800F012FB4FF4805002
:100940000C4908800AE00B4801880088401E094ACB
:10095000108019B9022000F033F8E4E701210648BD
:1009600000F0F2FA0028EED0034800F0F6FAC0B228
:10097000D9E70000320000200038004010B5002404
:100980004FF480510D4800F029F99F20FFF7BAFF7E
:10099000FF20FFF7B7FF44EA0044FF20FFF7B2FF54
:1009A00044EA0024FF20FFF7ADFF04434FF48051D9
:1009B000024800F015F9204610BD0000000C01406F
:1009C00010B50446214602A000F0B2FD002010BD83
:1009D0003C3C2D464C4153482D4552524F522D3EE2
:1009E0003E20464C415348204572726F723A25644E
:1009F0000D0A0A0010B500244FF48051124800F08F
:100A0000EDF80520FFF77EFF4FF480500F49088076
:100A100000BFFF20FFF776FF04460C4801880088DE
:100A2000401E0A4A108019B90420FFF7C9FF10BD03
:100A300004F001000028ECD14FF48051024800F08E
:100A4000CFF800BFF3E70000000C014032000020A7
:100A500010B54FF48051064800F0C0F80620FFF7AB
:100A600051FF4FF48051024800F0BAF810BD000069
:100A7000000C014030B500228B071C0F0F2303FA36
:100A800004F20B4B8C1053F824309343084C8D1018
:100A900044F8253023468C1053F824308C07240F5B
:100AA00000FA04F42343024C8D1044F8253030BD85
:100AB000080001402DE9F0410246002500260020F3
:100AC00000230024002791F803C00CF00F0591F8D3
:100AD00003C00CF0100CBCF1000F03D091F802C061
:100AE0004CEA050591F800C0BCF1000F31D0146844
:100AF00000202BE04FF0010C0CFA00F3B1F800C01D
:100B00000CEA03069E4220D183004FF00F0C0CFA32
:100B100003F7BC4305FA03FC4CEA040491F803C054
:100B2000BCF1280F06D14FF0010C0CFA00FCC2F802
:100B300014C00AE091F803C0BCF1480F05D14FF092
:100B4000010C0CFA00FCC2F810C0401C0828D1D3DC
:100B50001460B1F800C0BCF1FF0F34DD5468002010
:100B60002EE000F1080C4FF0010808FA0CF3B1F880
:100B700000C00CEA03069E4221D183004FF00F0C07
:100B80000CFA03F7BC4305FA03FC4CEA040491F8A1
:100B900003C0BCF1280F05D100F1080C08FA0CF8CD
:100BA000C2F8148091F803C0BCF1480F07D100F1DE
:100BB000080C4FF0010808FA0CF8C2F81080401C2D
:100BC0000828CED35460BDE8F08102460020936827
:100BD0000B400BB1012000E00020704741617047DD
:100BE0000161704700BFFEE721B1028842F48062D4
:100BF000028004E002884FF6FF331A4002807047FB
:100C000021B1028842F00102028004E002884FF61E
:100C1000FE731A40028070472DE9F04385B0044608
:100C20000D460026B1460427DFF8CC80A6884FF693
:100C3000C0700640684600F0F7F8DDF808802F48DD
:100C4000B8FBF0F01FFA80F946EA0906A680208872
:100C50004FF6FE7108402080002629492868884206
:100C60000CD828684000B8FBF0F087B2042F00DAF7
:100C700004273E4309F10100208427E0E8884BF671
:100C8000FF71884206D1286800EB4000B8FBF0F005
:100C900087B209E0286800EBC00101EB0010B8FB47
:100CA000F0F087B247F48047C7F30B0008B947F06C
:100CB000010747F4004006434FF4967009FB00F02B
:100CC0004FF47A7190FBF1F0401C2084A6832088B9
:100CD00040F00100208026884FF6F5300640A888B5
:100CE0006989084306432680A88929890843208109
:100CF00005B0BDE8F083000000127A0040420F000A
:100D0000A086010008B50121102000F07DF84FF405
:100D10000050ADF8000010208DF8030003208DF87E
:100D2000020069460348FFF7C5FE4FF40050014931
:100D3000086108BD0010014000BFFEE770470000D9
:100D400070B5002100230F22C47804B3154C246829
:100D500004F4E064C4F5E064210AC1F10403CA406C
:100D6000447804FA03F184781440214309010E4CBD
:100D70000678A155047804F01F050124AC400578DD
:100D80006D11AD0005F1E025C5F8004109E00478DA
:100D900004F01F050124AC40044D0678761145F897
:100DA000264070BD0CED00E000E400E080E100E0D2
:100DB00002490143024A1160704700000000FA0531
:100DC0000CED00E07047000029B1064A5269024369
:100DD000044B5A6104E0034A52698243014B5A6151
:100DE000704700000010024029B1064AD269024350
:100DF000044BDA6104E0034AD2698243014BDA61B1
:100E0000704700000010024029B1064A926902436F
:100E1000044B9A6104E0034A92698243014B9A6150
:100E2000704700000010024030B50021002200246D
:100E300000232D4D6D6805F00C0121B1042905D06A
:100E4000082923D105E0294D056022E0274D0560E2
:100E50001FE0254D6D6805F47012234D6D6805F493
:100E60008034022505EB92421CB9214D55430560A3
:100E70000BE01D4D6D6805F400351DB11C4D55434B
:100E8000056002E0194D5543056002E0174D05600D
:100E900000BF00BF144D6D6805F0F0010909154D44
:100EA0006B5C0568DD4045600F4D6D6805F4E061E1
:100EB000090A104D6B5C4568DD4085600A4D6D6820
:100EC00005F46051C90A0B4D6B5C4568DD40C56097
:100ED000054D6D6805F44041890B074D6B5CC56895
:100EE000B5FBF3F5056130BD0010024000127A0039
:100EF00000093D00140000202400002008B5012155
:100F00000820FFF781FF2020ADF8000010208DF8A9
:100F1000030003208DF8020069460448FFF7CAFD6C
:100F2000202002491031086008BD0000000C01407B
:100F300021B1028842F04002028004E002884FF6AC
:100F4000BF731A40028070470246002013890B408D
:100F50000BB1012000E000207047014688897047EE
:100F60008181704710B50022028802F441520B883B
:100F70004C8823438C882343CC8823430C89234308
:100F80004C8923438C892343CC8923431A43028011
:100F9000838B4FF2FF74234083830B8A038210BD3F
:100FA000704710B500F002F810BD00000CB500202D
:100FB000019000903348006840F480303149086067
:100FC00000BF3048006800F4003000900198401CD9
:100FD0000190009818B90198B0F5A06FF1D1294897
:100FE000006800F4003010B10120009001E0002002
:100FF00000900098012843D12348006840F0100079
:10100000214908600846006820F00300086008468F
:10101000006840F0020008601A48406819494860BA
:101020000846406848600846406840F48060486070
:101030000846406820F47C1048600846406840F448
:10104000E81048600846006840F08070086000BF03
:101050000C48006800F000700028F9D0094840688A
:1010600020F00300074948600846406840F002004D
:10107000486000BF0348406800F00C000828F9D120
:101080000CBD00000010024000200240042808D1DE
:101090004FF0E021096941F004014FF0E0221161B5
:1010A00007E04FF0E021096921F004014FF0E02250
:1010B000116170477047000010B51348006840F098
:1010C00001001149086008464068104908400E496F
:1010D0004860084600680E4908400B490860084609
:1010E000006820F4802008600846406820F4FE0074
:1010F00048604FF41F008860FFF753FF4FF0006017
:101100000449086010BD0000001002400000FFF814
:10111000FFFFF6FE08ED00E000B587B0012144F2C4
:101120000400FFF771FE03208DF816004FF4806075
:10113000ADF8140004208DF8170005A92248FFF728
:10114000B9FC4FF40070ADF8140018208DF81700AA
:1011500005A91D48FFF7AEFC4FF4E13001900020D7
:10116000ADF80800ADF80A00ADF80C000C20ADF8A1
:101170000E000020ADF8100001A9144800F066F937
:1011800025208DF8180000208DF8190001208DF819
:101190001A008DF81B0006A8FFF7D2FD012240F2CD
:1011A00024410A4800F02DF901224021074800F0AF
:1011B000E8F84021054800F0CFF80121034800F08D
:1011C000D4F807B000BD000000080140003801401D
:1011D00000B58BB001210846FFF7F6FD10480090DE
:1011E000104800680190002002904FF48060039046
:1011F0000020049080200590002006900790089021
:101200004FF48050099000200A9069460648FFF785
:101210003DF901210448FFF729F90BB000BD00009A
:1012200004380140380000205800024008B540F260
:1012300024412D4800F0BBF8012853D100212B4850
:10124000FFF714F928480088C0B200902648001D16
:101250000088C0B200902548FFF714F9C0F58060FF
:1012600023490968B1F8001460F30E0120480068B2
:10127000A0F800141E480068B0F8000420F40040F4
:1012800000F500401A490968A1F800044FF4003045
:10129000FFF7DEF816480068B0F80004C0F30E014E
:1012A0001448026814A000F043F912480068810253
:1012B0004FF480620E480068FFF7F6F90D480068A9
:1012C000401C0C4908600846016811A000F030F984
:1012D0004FF480610548FFF7F7F801210348FFF755
:1012E000C5F800BF08BD00000038014058000240AA
:1012F0003800002028000020676574646174612054
:101300006C656E202564202D2D202564200D0A009B
:101310006731202564200D0A0000000010B5FFF79A
:10132000FBFE034803490860FFF752FF10BD0000B1
:10133000440000203800002010B50446214605482E
:1013400000F0F0F800BF8021024800F023F80028E8
:10135000F9D010BD0038014001F40072B2F5007FF1
:1013600000D100BFCA430280704721B1828942F494
:101370000052828104E082894DF6FF731A40828117
:1013800070471AB1838A0B43838202E0838A8B43BE
:101390008382704702460020B1F5007F00D100BF74
:1013A00013880B400BB1012000E00020704770B59E
:1013B0000246002400230025002040F66A16B142B0
:1013C00000D100BFC1F3421501F01F03012606FA48
:1013D00003F3012D02D19689334006E0022D02D19C
:1013E000168A334001E0968A33400C12012606FA31
:1013F00004F41688344013B10CB1012000E0002041
:1014000070BDF0B50346002400260025002040F6FC
:101410006A17B94200D100BF1846C1F3421401F067
:101420001F06012707FA06F5012C01D10C3004E054
:10143000022C01D1103000E014301AB107682F439C
:10144000076002E00768AF430760F0BD2DE9F04791
:1014500086B005460E460024A24600BFA1460027DE
:10146000B08900B100BF2F462C8A4CF6FF700440B3
:10147000F08804432C82AC894EF6F3100440B08807
:1014800031890843718908430443AC81AC8A4FF623
:10149000FF400440B0890443AC8201A8FFF7C4FCBC
:1014A0001F48874202D1DDF810A001E0DDF80CA052
:1014B000A88900F4004040B10AEBCA0000EB0A1012
:1014C00031684900B0FBF1F807E00AEBCA0000EB15
:1014D0000A1031688900B0FBF1F86420B8FBF0F025
:1014E00004012009642101FB1089A88900F400404F
:1014F00040B1322000EBC900B0FBF1F000F0070072
:10150000044308E0322000EB09106421B0FBF1F045
:1015100000F00F0004432C8106B0BDE8F087000006
:1015200000380140C1F308028280704700BFFEE727
:101530000FB4054B10B503A9044A029800F018F83F
:1015400010BC5DF814FB00003919000840000020B1
:1015500002E008C8121F08C1002AFAD1704770477C
:10156000002001E001C1121F002AFBD170470000DA
:101570002DE9FF4F8DB09B460F460446002606E03E
:1015800025280BD05A460F999047641C761C20786A
:101590000028F5D111B03046BDE8F08F0025A846EF
:1015A0000122984900E0054314F8013F203B02FA6C
:1015B00003F00842F7D120782E2817D114F8010F34
:1015C00045F004052A280ED06FF02F022078A0F1F4
:1015D000300109290AD808EB880102EB410100EB30
:1015E0000108641CF2E757F8048B641C20786C280F
:1015F0000DD004DC4C2812D06A2811D104E07428E4
:101600000DD07A280CD10AE045F4001507E0617886
:1016100045F48015814202D1641C05F58015641CD7
:101620002078692844D008DC0028B3D0582867D037
:1016300063280FD0642808D13AE0702865D0732859
:1016400012D075285AD078285AD05A460F99904708
:10165000761CD5E017F8040B8DF8000000208DF8FB
:101660000100E946012003E057F8049B4FF0FF30EA
:1016700069074FF0000501D40AE06D1C45450DDAFD
:101680008542FADB19F805100029F6D106E06D1C39
:101690008542FCDB19F805100029F8D12E4404E03E
:1016A00019F8010B5A460F9990476D1EF8D2A7E022
:1016B0000A200021CDE90801C5F3025002280CD010
:1016C00001CFC117021E71F100020CDA0023D0EB2A
:1016D000030063EB01012D2208E0FF1D27F007073F
:1016E000F7E80201EEE72A0504D52B228DF8282021
:1016F00001223CE0EA073AD02022F7E70A2000E086
:1017000010200021CDE9080107E01020002145F05C
:101710000405CDE908014FF00808C5F3025002287E
:1017200010D001CF00214FF0000A2A0720D52278DF
:10173000702A0DD0DDE908C38CF0100C5CEA030CB4
:101740000CD015E0FF1D27F00707F7E80201EAE7D4
:1017500040228DF828204FF0010A0CE050EA0103E6
:1017600006D030238DF828308DF8292002229246A9
:101770002278582A04D024A20DF120090B9209E006
:1017800026A2F9E7DDE90823FEF7CEFC0B9B9B5C64
:1017900009F8013D50EA0102F4D1ADEB0900203017
:1017A0000890680701D44FF001080899884503DDC7
:1017B0000898A8EB000000E000208046002506E025
:1017C0000AA85A46405D0F9990476D1C761C5545F6
:1017D000F6DB04E030205A460F999047761CB8F1AA
:1017E0000001A8F10108F5DC05E019F8010B5A46E3
:1017F0000F999047761C0899481E08900029F4DC40
:10180000641CC4E6092801003031323334353637E0
:10181000383961626364656600000000303132333C
:1018200034353637383941424344454600000000DC
:1018300010B54FF4C060FFF7BBFAFFF75FFBFFF78F
:101840006DFDFEF7D5FCFEF7ADFFFEF717FDFFF7C8
:1018500059FAFEF7FBFEFEF72DFD10BD10B56FF037
:101860000400FFF713FC0A4800680A49B0FBF1F0D6
:10187000094908700846007800EB4001C1EBC01030
:101880004FF6FF7101EAC0000449088010BD000056
:101890000000002000127A003400002036000020F2
:1018A0000146114A12884A434FF0E0235A61002250
:1018B0009A611A46126942F001021A6100BF4FF0A4
:1018C000E022106900F001021AB100F48032002A0F
:1018D000F5D04FF0E022126922F001024FF0E02330
:1018E0001A6100229A617047360000200146114AB1
:1018F00012784A434FF0E0235A6100229A611A4657
:10190000126942F001021A6100BF4FF0E022106933
:1019100000F001021AB100F48032002AF5D04FF035
:10192000E022126922F001024FF0E0231A61002246
:101930009A6170473400002070B504460D46E0B24D
:10194000FFF7FAFC00BF80210348FFF723FD0028C2
:10195000F9D0204670BD00000038014086B0FFF786
:101960007DFFFFF765FFFEF70BFD4FF4FA70FFF701
:1019700097FF20A0FFF7DCFDFFF700F804462146A3
:101980001FA0FFF7D5FD1422214901A8FEF762FE32
:101990009DF8070000909DF806309DF805209DF801
:1019A00004101CA0FFF7C4FD9DF80B0000909DF8EB
:1019B0000A309DF809209DF8081016A0FFF7B8FD21
:1019C0009DF80F0000909DF80E309DF80D209DF8B9
:1019D0000C1010A0FFF7ACFD9DF8130000909DF8CF
:1019E00012309DF811209DF810100AA0FFF7A0FDFD
:1019F00000BFFEE7696E6974204F4B210D0A00009D
:101A0000666C61736820637320256C78200D0A0072
:101A1000000101000D0A20B6C1B3F6B5C4CAFDBE6F
:101A2000DDCEAAA3BA25782C2025782C2025782C69
:101A3000202578200D0A0000581A00080000002018
:101A400044000000501500089C1A000844000020C3
:101A5000040800006015000800A24A04000000000D
:101A6000000000000102030406070809000000004E
:101A70000102030401020304060708090204060820
:101A80000000000000000000000000000000000056
:0C1A90000000000000000000000000004A
:04000005080000ED02
:00000001FF
